{
  "contractName": "ForgottenAdventurers",
  "abi": [
    {
      "inputs": [
        {
          "internalType": "address",
          "name": "_VRFCoordinator",
          "type": "address"
        },
        {
          "internalType": "address",
          "name": "_LinkToken",
          "type": "address"
        },
        {
          "internalType": "bytes32",
          "name": "_keyhash",
          "type": "bytes32"
        },
        {
          "internalType": "uint256",
          "name": "_fee",
          "type": "uint256"
        }
      ],
      "stateMutability": "nonpayable",
      "type": "constructor"
    },
    {
      "anonymous": false,
      "inputs": [
        {
          "indexed": true,
          "internalType": "address",
          "name": "owner",
          "type": "address"
        },
        {
          "indexed": true,
          "internalType": "address",
          "name": "approved",
          "type": "address"
        },
        {
          "indexed": true,
          "internalType": "uint256",
          "name": "tokenId",
          "type": "uint256"
        }
      ],
      "name": "Approval",
      "type": "event"
    },
    {
      "anonymous": false,
      "inputs": [
        {
          "indexed": true,
          "internalType": "address",
          "name": "owner",
          "type": "address"
        },
        {
          "indexed": true,
          "internalType": "address",
          "name": "operator",
          "type": "address"
        },
        {
          "indexed": false,
          "internalType": "bool",
          "name": "approved",
          "type": "bool"
        }
      ],
      "name": "ApprovalForAll",
      "type": "event"
    },
    {
      "anonymous": false,
      "inputs": [
        {
          "indexed": true,
          "internalType": "uint256",
          "name": "tokenId",
          "type": "uint256"
        },
        {
          "indexed": false,
          "internalType": "string",
          "name": "tokenURI",
          "type": "string"
        }
      ],
      "name": "CreatedAdventurer",
      "type": "event"
    },
    {
      "anonymous": false,
      "inputs": [
        {
          "indexed": true,
          "internalType": "uint256",
          "name": "tokenId",
          "type": "uint256"
        },
        {
          "indexed": false,
          "internalType": "uint256",
          "name": "randomNumber",
          "type": "uint256"
        }
      ],
      "name": "CreatedUnfinishedAdventurer",
      "type": "event"
    },
    {
      "anonymous": false,
      "inputs": [
        {
          "indexed": true,
          "internalType": "address",
          "name": "previousOwner",
          "type": "address"
        },
        {
          "indexed": true,
          "internalType": "address",
          "name": "newOwner",
          "type": "address"
        }
      ],
      "name": "OwnershipTransferred",
      "type": "event"
    },
    {
      "anonymous": false,
      "inputs": [
        {
          "indexed": true,
          "internalType": "address",
          "name": "from",
          "type": "address"
        },
        {
          "indexed": true,
          "internalType": "address",
          "name": "to",
          "type": "address"
        },
        {
          "indexed": true,
          "internalType": "uint256",
          "name": "tokenId",
          "type": "uint256"
        }
      ],
      "name": "Transfer",
      "type": "event"
    },
    {
      "anonymous": false,
      "inputs": [
        {
          "indexed": true,
          "internalType": "bytes32",
          "name": "requestId",
          "type": "bytes32"
        },
        {
          "indexed": true,
          "internalType": "uint256",
          "name": "tokenId",
          "type": "uint256"
        }
      ],
      "name": "requestedAdventurer",
      "type": "event"
    },
    {
      "inputs": [
        {
          "internalType": "address",
          "name": "to",
          "type": "address"
        },
        {
          "internalType": "uint256",
          "name": "tokenId",
          "type": "uint256"
        }
      ],
      "name": "approve",
      "outputs": [],
      "stateMutability": "nonpayable",
      "type": "function"
    },
    {
      "inputs": [
        {
          "internalType": "address",
          "name": "owner",
          "type": "address"
        }
      ],
      "name": "balanceOf",
      "outputs": [
        {
          "internalType": "uint256",
          "name": "",
          "type": "uint256"
        }
      ],
      "stateMutability": "view",
      "type": "function",
      "constant": true
    },
    {
      "inputs": [
        {
          "internalType": "uint256",
          "name": "tokenId",
          "type": "uint256"
        }
      ],
      "name": "getApproved",
      "outputs": [
        {
          "internalType": "address",
          "name": "",
          "type": "address"
        }
      ],
      "stateMutability": "view",
      "type": "function",
      "constant": true
    },
    {
      "inputs": [
        {
          "internalType": "address",
          "name": "owner",
          "type": "address"
        },
        {
          "internalType": "address",
          "name": "operator",
          "type": "address"
        }
      ],
      "name": "isApprovedForAll",
      "outputs": [
        {
          "internalType": "bool",
          "name": "",
          "type": "bool"
        }
      ],
      "stateMutability": "view",
      "type": "function",
      "constant": true
    },
    {
      "inputs": [],
      "name": "maxAvailable",
      "outputs": [
        {
          "internalType": "uint256",
          "name": "",
          "type": "uint256"
        }
      ],
      "stateMutability": "view",
      "type": "function",
      "constant": true
    },
    {
      "inputs": [],
      "name": "name",
      "outputs": [
        {
          "internalType": "string",
          "name": "",
          "type": "string"
        }
      ],
      "stateMutability": "view",
      "type": "function",
      "constant": true
    },
    {
      "inputs": [],
      "name": "owner",
      "outputs": [
        {
          "internalType": "address",
          "name": "",
          "type": "address"
        }
      ],
      "stateMutability": "view",
      "type": "function",
      "constant": true
    },
    {
      "inputs": [
        {
          "internalType": "uint256",
          "name": "tokenId",
          "type": "uint256"
        }
      ],
      "name": "ownerOf",
      "outputs": [
        {
          "internalType": "address",
          "name": "",
          "type": "address"
        }
      ],
      "stateMutability": "view",
      "type": "function",
      "constant": true
    },
    {
      "inputs": [],
      "name": "price",
      "outputs": [
        {
          "internalType": "uint256",
          "name": "",
          "type": "uint256"
        }
      ],
      "stateMutability": "view",
      "type": "function",
      "constant": true
    },
    {
      "inputs": [
        {
          "internalType": "bytes32",
          "name": "requestId",
          "type": "bytes32"
        },
        {
          "internalType": "uint256",
          "name": "randomness",
          "type": "uint256"
        }
      ],
      "name": "rawFulfillRandomness",
      "outputs": [],
      "stateMutability": "nonpayable",
      "type": "function"
    },
    {
      "inputs": [],
      "name": "renounceOwnership",
      "outputs": [],
      "stateMutability": "nonpayable",
      "type": "function"
    },
    {
      "inputs": [
        {
          "internalType": "bytes32",
          "name": "",
          "type": "bytes32"
        }
      ],
      "name": "requestIdToSender",
      "outputs": [
        {
          "internalType": "address",
          "name": "",
          "type": "address"
        }
      ],
      "stateMutability": "view",
      "type": "function",
      "constant": true
    },
    {
      "inputs": [
        {
          "internalType": "bytes32",
          "name": "",
          "type": "bytes32"
        }
      ],
      "name": "requestIdToTokenId",
      "outputs": [
        {
          "internalType": "uint256",
          "name": "",
          "type": "uint256"
        }
      ],
      "stateMutability": "view",
      "type": "function",
      "constant": true
    },
    {
      "inputs": [
        {
          "internalType": "address",
          "name": "from",
          "type": "address"
        },
        {
          "internalType": "address",
          "name": "to",
          "type": "address"
        },
        {
          "internalType": "uint256",
          "name": "tokenId",
          "type": "uint256"
        }
      ],
      "name": "safeTransferFrom",
      "outputs": [],
      "stateMutability": "nonpayable",
      "type": "function"
    },
    {
      "inputs": [
        {
          "internalType": "address",
          "name": "from",
          "type": "address"
        },
        {
          "internalType": "address",
          "name": "to",
          "type": "address"
        },
        {
          "internalType": "uint256",
          "name": "tokenId",
          "type": "uint256"
        },
        {
          "internalType": "bytes",
          "name": "_data",
          "type": "bytes"
        }
      ],
      "name": "safeTransferFrom",
      "outputs": [],
      "stateMutability": "nonpayable",
      "type": "function"
    },
    {
      "inputs": [
        {
          "internalType": "address",
          "name": "operator",
          "type": "address"
        },
        {
          "internalType": "bool",
          "name": "approved",
          "type": "bool"
        }
      ],
      "name": "setApprovalForAll",
      "outputs": [],
      "stateMutability": "nonpayable",
      "type": "function"
    },
    {
      "inputs": [
        {
          "internalType": "bytes4",
          "name": "interfaceId",
          "type": "bytes4"
        }
      ],
      "name": "supportsInterface",
      "outputs": [
        {
          "internalType": "bool",
          "name": "",
          "type": "bool"
        }
      ],
      "stateMutability": "view",
      "type": "function",
      "constant": true
    },
    {
      "inputs": [],
      "name": "symbol",
      "outputs": [
        {
          "internalType": "string",
          "name": "",
          "type": "string"
        }
      ],
      "stateMutability": "view",
      "type": "function",
      "constant": true
    },
    {
      "inputs": [],
      "name": "tokenCounter",
      "outputs": [
        {
          "internalType": "uint256",
          "name": "",
          "type": "uint256"
        }
      ],
      "stateMutability": "view",
      "type": "function",
      "constant": true
    },
    {
      "inputs": [
        {
          "internalType": "uint256",
          "name": "",
          "type": "uint256"
        }
      ],
      "name": "tokenIdToRandomNumber",
      "outputs": [
        {
          "internalType": "uint256",
          "name": "",
          "type": "uint256"
        }
      ],
      "stateMutability": "view",
      "type": "function",
      "constant": true
    },
    {
      "inputs": [
        {
          "internalType": "uint256",
          "name": "tokenId",
          "type": "uint256"
        }
      ],
      "name": "tokenURI",
      "outputs": [
        {
          "internalType": "string",
          "name": "",
          "type": "string"
        }
      ],
      "stateMutability": "view",
      "type": "function",
      "constant": true
    },
    {
      "inputs": [
        {
          "internalType": "address",
          "name": "from",
          "type": "address"
        },
        {
          "internalType": "address",
          "name": "to",
          "type": "address"
        },
        {
          "internalType": "uint256",
          "name": "tokenId",
          "type": "uint256"
        }
      ],
      "name": "transferFrom",
      "outputs": [],
      "stateMutability": "nonpayable",
      "type": "function"
    },
    {
      "inputs": [
        {
          "internalType": "address",
          "name": "newOwner",
          "type": "address"
        }
      ],
      "name": "transferOwnership",
      "outputs": [],
      "stateMutability": "nonpayable",
      "type": "function"
    },
    {
      "inputs": [
        {
          "internalType": "uint256",
          "name": "_randomNumber",
          "type": "uint256"
        }
      ],
      "name": "getName",
      "outputs": [
        {
          "internalType": "string",
          "name": "",
          "type": "string"
        }
      ],
      "stateMutability": "view",
      "type": "function",
      "constant": true
    },
    {
      "inputs": [
        {
          "internalType": "uint256",
          "name": "_randomNumber",
          "type": "uint256"
        }
      ],
      "name": "getRace",
      "outputs": [
        {
          "internalType": "string",
          "name": "",
          "type": "string"
        }
      ],
      "stateMutability": "view",
      "type": "function",
      "constant": true
    },
    {
      "inputs": [
        {
          "internalType": "uint256",
          "name": "_randomNumber",
          "type": "uint256"
        }
      ],
      "name": "getClass",
      "outputs": [
        {
          "internalType": "string",
          "name": "",
          "type": "string"
        }
      ],
      "stateMutability": "view",
      "type": "function",
      "constant": true
    },
    {
      "inputs": [
        {
          "internalType": "uint256",
          "name": "_randomNumber",
          "type": "uint256"
        }
      ],
      "name": "getLastSeen",
      "outputs": [
        {
          "internalType": "string",
          "name": "",
          "type": "string"
        }
      ],
      "stateMutability": "view",
      "type": "function",
      "constant": true
    },
    {
      "inputs": [
        {
          "internalType": "uint256",
          "name": "_randomNumber",
          "type": "uint256"
        }
      ],
      "name": "getLevel",
      "outputs": [
        {
          "internalType": "string",
          "name": "",
          "type": "string"
        }
      ],
      "stateMutability": "pure",
      "type": "function",
      "constant": true
    },
    {
      "inputs": [],
      "name": "withdraw",
      "outputs": [],
      "stateMutability": "payable",
      "type": "function",
      "payable": true
    },
    {
      "inputs": [],
      "name": "getTotalNFTsMintedSoFar",
      "outputs": [
        {
          "internalType": "uint256",
          "name": "",
          "type": "uint256"
        }
      ],
      "stateMutability": "view",
      "type": "function",
      "constant": true
    },
    {
      "inputs": [],
      "name": "getMaxAvailable",
      "outputs": [
        {
          "internalType": "uint256",
          "name": "",
          "type": "uint256"
        }
      ],
      "stateMutability": "pure",
      "type": "function",
      "constant": true
    },
    {
      "inputs": [],
      "name": "getMintPrice",
      "outputs": [
        {
          "internalType": "uint256",
          "name": "",
          "type": "uint256"
        }
      ],
      "stateMutability": "pure",
      "type": "function",
      "constant": true
    },
    {
      "inputs": [],
      "name": "create",
      "outputs": [
        {
          "internalType": "bytes32",
          "name": "_requestId",
          "type": "bytes32"
        }
      ],
      "stateMutability": "payable",
      "type": "function",
      "payable": true
    },
    {
      "inputs": [
        {
          "internalType": "uint256",
          "name": "_tokenId",
          "type": "uint256"
        }
      ],
      "name": "finishMint",
      "outputs": [],
      "stateMutability": "nonpayable",
      "type": "function"
    },
    {
      "inputs": [
        {
          "internalType": "uint256",
          "name": "_randomNumber",
          "type": "uint256"
        }
      ],
      "name": "generateSVG",
      "outputs": [
        {
          "internalType": "string",
          "name": "",
          "type": "string"
        }
      ],
      "stateMutability": "view",
      "type": "function",
      "constant": true
    },
    {
      "inputs": [
        {
          "internalType": "string",
          "name": "_svg",
          "type": "string"
        }
      ],
      "name": "svgToImageURI",
      "outputs": [
        {
          "internalType": "string",
          "name": "",
          "type": "string"
        }
      ],
      "stateMutability": "pure",
      "type": "function",
      "constant": true
    },
    {
      "inputs": [
        {
          "internalType": "string",
          "name": "_imageURI",
          "type": "string"
        },
        {
          "internalType": "uint256",
          "name": "_tokenId",
          "type": "uint256"
        }
      ],
      "name": "formatTokenURI",
      "outputs": [
        {
          "internalType": "string",
          "name": "",
          "type": "string"
        }
      ],
      "stateMutability": "pure",
      "type": "function",
      "constant": true
    }
  ],
  "bytecode": "0x60c06040526040518061010001604052806040518060400160405280600681526020017f4275636b6c65000000000000000000000000000000000000000000000000000081525081526020016040518060400160405280600681526020017f456e7973696e000000000000000000000000000000000000000000000000000081525081526020016040518060400160405280600681526020017f56616c6c696e000000000000000000000000000000000000000000000000000081525081526020016040518060400160405280600681526020017f4272756e7468000000000000000000000000000000000000000000000000000081525081526020016040518060400160405280600781526020017f43656c657374650000000000000000000000000000000000000000000000000081525081526020016040518060400160405280600681526020017f42726f6d6272000000000000000000000000000000000000000000000000000081525081526020016040518060400160405280600681526020017f466c696e7465000000000000000000000000000000000000000000000000000081525081526020016040518060400160405280600681526020017f52756d6461720000000000000000000000000000000000000000000000000000815250815250600f906008620001f892919062000d74565b506040518061012001604052806040518060400160405280600781526020017f57617272696f720000000000000000000000000000000000000000000000000081525081526020016040518060400160405280600781526020017f50616c6164696e0000000000000000000000000000000000000000000000000081525081526020016040518060400160405280600581526020017f447275696400000000000000000000000000000000000000000000000000000081525081526020016040518060400160405280600581526020017f526f67756500000000000000000000000000000000000000000000000000000081525081526020016040518060400160405280600681526020017f507269657374000000000000000000000000000000000000000000000000000081525081526020016040518060400160405280600681526020017f5368616d616e000000000000000000000000000000000000000000000000000081525081526020016040518060400160405280600481526020017f4d6167650000000000000000000000000000000000000000000000000000000081525081526020016040518060400160405280600781526020017f5761726c6f636b0000000000000000000000000000000000000000000000000081525081526020016040518060400160405280600681526020017f48756e746572000000000000000000000000000000000000000000000000000081525081525060119060096200042892919062000ddb565b506040518060a001604052806040518060400160405280600f81526020017f2c2048616e64206f6620412764616c000000000000000000000000000000000081525081526020016040518060400160405280601581526020017f206f6620746865205368617474657265642053756e000000000000000000000081525081526020016040518060400160405280600881526020017f204a656e6b696e7300000000000000000000000000000000000000000000000081525081526020016040518060400160405280600c81526020017f207468652050617469656e74000000000000000000000000000000000000000081525081526020016040518060400160405280600d81526020017f207468652048616c6c6f7765640000000000000000000000000000000000000081525081525060129060056200056b92919062000e42565b506040518061014001604052806040518060400160405280601181526020017f53696c76657270696e6520466f7265737400000000000000000000000000000081525081526020016040518060400160405280600781526020017f466572616c61730000000000000000000000000000000000000000000000000081525081526020016040518060400160405280600e81526020017f53746f726d77696e642042616e6b00000000000000000000000000000000000081525081526020016040518060400160405280601081526020017f5377616d70206f6620536f72726f77730000000000000000000000000000000081525081526020016040518060400160405280600a81526020017f44756e204d6f726f67680000000000000000000000000000000000000000000081525081526020016040518060400160405280600981526020017f417368656e76616c65000000000000000000000000000000000000000000000081525081526020016040518060400160405280600f81526020017f5761696c696e672043617665726e73000000000000000000000000000000000081525081526020016040518060400160405280600c81526020017f57696e746572737072696e67000000000000000000000000000000000000000081525081526020016040518060400160405280600a81526020017f536f75746873686f72650000000000000000000000000000000000000000000081525081526020016040518060400160405280600b81526020017f54617272656e204d696c6c000000000000000000000000000000000000000000815250815250601390600a620007d692919062000ea9565b50348015620007e457600080fd5b50604051620069a5380380620069a583398181016040528101906200080a91906200110e565b83836040518060400160405280601481526020017f466f72676f7474656e416476656e7475726572730000000000000000000000008152506040518060400160405280600681526020017f4144564e5452000000000000000000000000000000000000000000000000000081525081600090805190602001906200089092919062000f10565b508060019080519060200190620008a992919062000f10565b5050508173ffffffffffffffffffffffffffffffffffffffff1660a08173ffffffffffffffffffffffffffffffffffffffff16815250508073ffffffffffffffffffffffffffffffffffffffff1660808173ffffffffffffffffffffffffffffffffffffffff16815250505050620009366200092a62000ca660201b60201c565b62000cae60201b60201c565b600060098190555081600d8190555080600e819055506040518060400160405280600581526020017f476e6f6d6500000000000000000000000000000000000000000000000000000081525060106040516200099290620011db565b90815260200160405180910390209080519060200190620009b592919062000f10565b506040518060400160405280600981526020017f4e6967687420456c6600000000000000000000000000000000000000000000008152506010604051620009fc9062001242565b9081526020016040518091039020908051906020019062000a1f92919062000f10565b506040518060400160405280600581526020017f48756d616e000000000000000000000000000000000000000000000000000000815250601060405162000a6690620012a9565b9081526020016040518091039020908051906020019062000a8992919062000f10565b506040518060400160405280600381526020017f4f72630000000000000000000000000000000000000000000000000000000000815250601060405162000ad09062001310565b9081526020016040518091039020908051906020019062000af392919062000f10565b506040518060400160405280600681526020017f556e646561640000000000000000000000000000000000000000000000000000815250601060405162000b3a9062001377565b9081526020016040518091039020908051906020019062000b5d92919062000f10565b506040518060400160405280600581526020017f4477617266000000000000000000000000000000000000000000000000000000815250601060405162000ba490620013de565b9081526020016040518091039020908051906020019062000bc792919062000f10565b506040518060400160405280600581526020017f54726f6c6c000000000000000000000000000000000000000000000000000000815250601060405162000c0e9062001445565b9081526020016040518091039020908051906020019062000c3192919062000f10565b506040518060400160405280600681526020017f54617572656e0000000000000000000000000000000000000000000000000000815250601060405162000c7890620014ac565b9081526020016040518091039020908051906020019062000c9b92919062000f10565b505050505062001528565b600033905090565b6000600860009054906101000a900473ffffffffffffffffffffffffffffffffffffffff16905081600860006101000a81548173ffffffffffffffffffffffffffffffffffffffff021916908373ffffffffffffffffffffffffffffffffffffffff1602179055508173ffffffffffffffffffffffffffffffffffffffff168173ffffffffffffffffffffffffffffffffffffffff167f8be0079c531659141344cd1fd0a4f28419497f9722a3daafe3b4186f6b6457e060405160405180910390a35050565b82805482825590600052602060002090810192821562000dc8579160200282015b8281111562000dc757825182908051906020019062000db692919062000f10565b509160200191906001019062000d95565b5b50905062000dd7919062000fa1565b5090565b82805482825590600052602060002090810192821562000e2f579160200282015b8281111562000e2e57825182908051906020019062000e1d92919062000f10565b509160200191906001019062000dfc565b5b50905062000e3e919062000fa1565b5090565b82805482825590600052602060002090810192821562000e96579160200282015b8281111562000e9557825182908051906020019062000e8492919062000f10565b509160200191906001019062000e63565b5b50905062000ea5919062000fa1565b5090565b82805482825590600052602060002090810192821562000efd579160200282015b8281111562000efc57825182908051906020019062000eeb92919062000f10565b509160200191906001019062000eca565b5b50905062000f0c919062000fa1565b5090565b82805462000f1e90620014f2565b90600052602060002090601f01602090048101928262000f42576000855562000f8e565b82601f1062000f5d57805160ff191683800117855562000f8e565b8280016001018555821562000f8e579182015b8281111562000f8d57825182559160200191906001019062000f70565b5b50905062000f9d919062000fc9565b5090565b5b8082111562000fc5576000818162000fbb919062000fe8565b5060010162000fa2565b5090565b5b8082111562000fe457600081600090555060010162000fca565b5090565b50805462000ff690620014f2565b6000825580601f106200100a57506200102b565b601f0160209004906000526020600020908101906200102a919062000fc9565b5b50565b600080fd5b600073ffffffffffffffffffffffffffffffffffffffff82169050919050565b6000620010608262001033565b9050919050565b620010728162001053565b81146200107e57600080fd5b50565b600081519050620010928162001067565b92915050565b6000819050919050565b620010ad8162001098565b8114620010b957600080fd5b50565b600081519050620010cd81620010a2565b92915050565b6000819050919050565b620010e881620010d3565b8114620010f457600080fd5b50565b6000815190506200110881620010dd565b92915050565b600080600080608085870312156200112b576200112a6200102e565b5b60006200113b8782880162001081565b94505060206200114e8782880162001081565b93505060406200116187828801620010bc565b92505060606200117487828801620010f7565b91505092959194509250565b600081905092915050565b7f4275636b6c650000000000000000000000000000000000000000000000000000600082015250565b6000620011c360068362001180565b9150620011d0826200118b565b600682019050919050565b6000620011e882620011b4565b9150819050919050565b7f456e7973696e0000000000000000000000000000000000000000000000000000600082015250565b60006200122a60068362001180565b91506200123782620011f2565b600682019050919050565b60006200124f826200121b565b9150819050919050565b7f56616c6c696e0000000000000000000000000000000000000000000000000000600082015250565b60006200129160068362001180565b91506200129e8262001259565b600682019050919050565b6000620012b68262001282565b9150819050919050565b7f4272756e74680000000000000000000000000000000000000000000000000000600082015250565b6000620012f860068362001180565b91506200130582620012c0565b600682019050919050565b60006200131d82620012e9565b9150819050919050565b7f43656c6573746500000000000000000000000000000000000000000000000000600082015250565b60006200135f60078362001180565b91506200136c8262001327565b600782019050919050565b6000620013848262001350565b9150819050919050565b7f42726f6d62720000000000000000000000000000000000000000000000000000600082015250565b6000620013c660068362001180565b9150620013d3826200138e565b600682019050919050565b6000620013eb82620013b7565b9150819050919050565b7f466c696e74650000000000000000000000000000000000000000000000000000600082015250565b60006200142d60068362001180565b91506200143a82620013f5565b600682019050919050565b600062001452826200141e565b9150819050919050565b7f52756d6461720000000000000000000000000000000000000000000000000000600082015250565b60006200149460068362001180565b9150620014a1826200145c565b600682019050919050565b6000620014b98262001485565b9150819050919050565b7f4e487b7100000000000000000000000000000000000000000000000000000000600052602260045260246000fd5b600060028204905060018216806200150b57607f821691505b60208210811415620015225762001521620014c3565b5b50919050565b60805160a05161545062001555600039600081816119dc0152612d6701526000612d2b01526154506000f3fe60806040526004361061021a5760003560e01c806370a0823111610123578063a7f93ebd116100ab578063d082e3811161006f578063d082e3811461085c578063e8c9bee514610887578063e985e9c5146108b2578063efc81a8c146108ef578063f2fde38b1461090d5761021a565b8063a7f93ebd14610763578063b88d4fde1461078e578063bac2e6db146107b7578063c4d53dea146107e2578063c87b56dd1461081f5761021a565b806394985ddd116100f257806394985ddd1461067e57806395d89b41146106a75780639c1cd795146106d2578063a035b1fe1461070f578063a22cb4651461073a5761021a565b806370a08231146105c2578063715018a6146105ff57806386481d40146106165780638da5cb5b146106535761021a565b806323b872dd116101a6578063512d62df11610175578063512d62df146104a5578063624194c7146104e25780636352211e1461050b5780636b8ff574146105485780636dcee4ca146105855761021a565b806323b872dd1461040c57806330d871c6146104355780633ccfd60b1461047257806342842e0e1461047c5761021a565b8063095ea7b3116101ed578063095ea7b3146102ef5780630d71aba514610318578063219c0eee146103555780632273f9e61461039257806322881f88146103cf5761021a565b806301ffc9a71461021f578063060475901461025c57806306fdde0314610287578063081812fc146102b2575b600080fd5b34801561022b57600080fd5b5061024660048036038101906102419190613568565b610936565b60405161025391906135b0565b60405180910390f35b34801561026857600080fd5b50610271610a18565b60405161027e91906135e4565b60405180910390f35b34801561029357600080fd5b5061029c610a22565b6040516102a99190613698565b60405180910390f35b3480156102be57600080fd5b506102d960048036038101906102d491906136e6565b610ab4565b6040516102e69190613754565b60405180910390f35b3480156102fb57600080fd5b506103166004803603810190610311919061379b565b610b39565b005b34801561032457600080fd5b5061033f600480360381019061033a91906136e6565b610c51565b60405161034c9190613698565b60405180910390f35b34801561036157600080fd5b5061037c60048036038101906103779190613811565b610ddd565b6040516103899190613754565b60405180910390f35b34801561039e57600080fd5b506103b960048036038101906103b491906136e6565b610e10565b6040516103c69190613698565b60405180910390f35b3480156103db57600080fd5b506103f660048036038101906103f19190613811565b610ef6565b60405161040391906135e4565b60405180910390f35b34801561041857600080fd5b50610433600480360381019061042e919061383e565b610f0e565b005b34801561044157600080fd5b5061045c600480360381019061045791906139c6565b610f6e565b6040516104699190613698565b60405180910390f35b61047a611001565b005b34801561048857600080fd5b506104a3600480360381019061049e919061383e565b6110cd565b005b3480156104b157600080fd5b506104cc60048036038101906104c791906136e6565b6110ed565b6040516104d99190613698565b60405180910390f35b3480156104ee57600080fd5b50610509600480360381019061050491906136e6565b6111d3565b005b34801561051757600080fd5b50610532600480360381019061052d91906136e6565b61133d565b60405161053f9190613754565b60405180910390f35b34801561055457600080fd5b5061056f600480360381019061056a91906136e6565b6113ef565b60405161057c9190613698565b60405180910390f35b34801561059157600080fd5b506105ac60048036038101906105a791906136e6565b6114d5565b6040516105b99190613698565b60405180910390f35b3480156105ce57600080fd5b506105e960048036038101906105e49190613a0f565b611840565b6040516105f691906135e4565b60405180910390f35b34801561060b57600080fd5b506106146118f8565b005b34801561062257600080fd5b5061063d600480360381019061063891906136e6565b611980565b60405161064a9190613698565b60405180910390f35b34801561065f57600080fd5b506106686119b0565b6040516106759190613754565b60405180910390f35b34801561068a57600080fd5b506106a560048036038101906106a09190613a3c565b6119da565b005b3480156106b357600080fd5b506106bc611a76565b6040516106c99190613698565b60405180910390f35b3480156106de57600080fd5b506106f960048036038101906106f491906136e6565b611b08565b60405161070691906135e4565b60405180910390f35b34801561071b57600080fd5b50610724611b20565b60405161073191906135e4565b60405180910390f35b34801561074657600080fd5b50610761600480360381019061075c9190613aa8565b611b2b565b005b34801561076f57600080fd5b50610778611b41565b60405161078591906135e4565b60405180910390f35b34801561079a57600080fd5b506107b560048036038101906107b09190613b89565b611b50565b005b3480156107c357600080fd5b506107cc611bb2565b6040516107d991906135e4565b60405180910390f35b3480156107ee57600080fd5b5061080960048036038101906108049190613c0c565b611bbc565b6040516108169190613698565b60405180910390f35b34801561082b57600080fd5b50610846600480360381019061084191906136e6565b611c17565b6040516108539190613698565b60405180910390f35b34801561086857600080fd5b50610871611d69565b60405161087e91906135e4565b60405180910390f35b34801561089357600080fd5b5061089c611d6f565b6040516108a991906135e4565b60405180910390f35b3480156108be57600080fd5b506108d960048036038101906108d49190613c68565b611d75565b6040516108e691906135b0565b60405180910390f35b6108f7611e09565b6040516109049190613cb7565b60405180910390f35b34801561091957600080fd5b50610934600480360381019061092f9190613a0f565b611f60565b005b60007f80ac58cd000000000000000000000000000000000000000000000000000000007bffffffffffffffffffffffffffffffffffffffffffffffffffffffff1916827bffffffffffffffffffffffffffffffffffffffffffffffffffffffff19161480610a0157507f5b5e139f000000000000000000000000000000000000000000000000000000007bffffffffffffffffffffffffffffffffffffffffffffffffffffffff1916827bffffffffffffffffffffffffffffffffffffffffffffffffffffffff1916145b80610a115750610a1082612058565b5b9050919050565b6000600954905090565b606060008054610a3190613d01565b80601f0160208091040260200160405190810160405280929190818152602001828054610a5d90613d01565b8015610aaa5780601f10610a7f57610100808354040283529160200191610aaa565b820191906000526020600020905b815481529060010190602001808311610a8d57829003601f168201915b5050505050905090565b6000610abf826120c2565b610afe576040517f08c379a0000000000000000000000000000000000000000000000000000000008152600401610af590613da5565b60405180910390fd5b6004600083815260200190815260200160002060009054906101000a900473ffffffffffffffffffffffffffffffffffffffff169050919050565b6000610b448261133d565b90508073ffffffffffffffffffffffffffffffffffffffff168373ffffffffffffffffffffffffffffffffffffffff161415610bb5576040517f08c379a0000000000000000000000000000000000000000000000000000000008152600401610bac90613e37565b60405180910390fd5b8073ffffffffffffffffffffffffffffffffffffffff16610bd461212e565b73ffffffffffffffffffffffffffffffffffffffff161480610c035750610c0281610bfd61212e565b611d75565b5b610c42576040517f08c379a0000000000000000000000000000000000000000000000000000000008152600401610c3990613ec9565b60405180910390fd5b610c4c8383612136565b505050565b60606010610d32600f805480602002602001604051908101604052809291908181526020016000905b82821015610d26578382906000526020600020018054610c9990613d01565b80601f0160208091040260200160405190810160405280929190818152602001828054610cc590613d01565b8015610d125780601f10610ce757610100808354040283529160200191610d12565b820191906000526020600020905b815481529060010190602001808311610cf557829003601f168201915b505050505081526020019060010190610c7a565b505050506000856121ef565b604051610d3f9190613f25565b90815260200160405180910390208054610d5890613d01565b80601f0160208091040260200160405190810160405280929190818152602001828054610d8490613d01565b8015610dd15780601f10610da657610100808354040283529160200191610dd1565b820191906000526020600020905b815481529060010190602001808311610db457829003601f168201915b50505050509050919050565b600a6020528060005260406000206000915054906101000a900473ffffffffffffffffffffffffffffffffffffffff1681565b6060610eef6013805480602002602001604051908101604052809291908181526020016000905b82821015610ee3578382906000526020600020018054610e5690613d01565b80601f0160208091040260200160405190810160405280929190818152602001828054610e8290613d01565b8015610ecf5780601f10610ea457610100808354040283529160200191610ecf565b820191906000526020600020905b815481529060010190602001808311610eb257829003601f168201915b505050505081526020019060010190610e37565b505050506000846121ef565b9050919050565b600c6020528060005260406000206000915090505481565b610f1f610f1961212e565b826122a2565b610f5e576040517f08c379a0000000000000000000000000000000000000000000000000000000008152600401610f5590613fae565b60405180910390fd5b610f69838383612380565b505050565b606060006040518060400160405280601a81526020017f646174613a696d6167652f7376672b786d6c3b6261736536342c00000000000081525090506000610fd484604051602001610fc09190613f25565b6040516020818303038152906040526125dc565b90508181604051602001610fe9929190613fce565b60405160208183030381529060405292505050919050565b61100961212e565b73ffffffffffffffffffffffffffffffffffffffff166110276119b0565b73ffffffffffffffffffffffffffffffffffffffff161461107d576040517f08c379a00000000000000000000000000000000000000000000000000000000081526004016110749061403e565b60405180910390fd5b6110856119b0565b73ffffffffffffffffffffffffffffffffffffffff166108fc479081150290604051600060405180830381858888f193505050501580156110ca573d6000803e3d6000fd5b50565b6110e883838360405180602001604052806000815250611b50565b505050565b60606111cc6011805480602002602001604051908101604052809291908181526020016000905b828210156111c057838290600052602060002001805461113390613d01565b80601f016020809104026020016040519081016040528092919081815260200182805461115f90613d01565b80156111ac5780601f10611181576101008083540402835291602001916111ac565b820191906000526020600020905b81548152906001019060200180831161118f57829003601f168201915b505050505081526020019060010190611114565b505050506000846121ef565b9050919050565b60006111de82611c17565b511115611220576040517f08c379a0000000000000000000000000000000000000000000000000000000008152600401611217906140aa565b60405180910390fd5b8060095411611264576040517f08c379a000000000000000000000000000000000000000000000000000000000815260040161125b90614116565b60405180910390fd5b6000600b600083815260200190815260200160002054116112ba576040517f08c379a00000000000000000000000000000000000000000000000000000000081526004016112b1906141a8565b60405180910390fd5b6000600b600083815260200190815260200160002054905060006112dd826114d5565b905060006112ea82610f6e565b90506112ff846112fa8387611bbc565b612755565b837f1f2517c2a91691ef7c3b6b0c60dd2f4188cf1d291657c88624919bd5fa6c9dc58360405161132f9190613698565b60405180910390a250505050565b6000806002600084815260200190815260200160002060009054906101000a900473ffffffffffffffffffffffffffffffffffffffff169050600073ffffffffffffffffffffffffffffffffffffffff168173ffffffffffffffffffffffffffffffffffffffff1614156113e6576040517f08c379a00000000000000000000000000000000000000000000000000000000081526004016113dd9061423a565b60405180910390fd5b80915050919050565b60606114ce600f805480602002602001604051908101604052809291908181526020016000905b828210156114c257838290600052602060002001805461143590613d01565b80601f016020809104026020016040519081016040528092919081815260200182805461146190613d01565b80156114ae5780601f10611483576101008083540402835291602001916114ae565b820191906000526020600020905b81548152906001019060200180831161149157829003601f168201915b505050505081526020019060010190611416565b505050506001846121ef565b9050919050565b60606114df613431565b60405180610140016040528061010381526020016152726101039139816000600b811061150f5761150e61425a565b5b6020020181905250611520836113ef565b816001600b81106115345761153361425a565b5b60200201819052506040518060600160405280602f81526020016153ec602f9139816002600b81106115695761156861425a565b5b602002018190525061157a83610c51565b816003600b811061158e5761158d61425a565b5b602002018190525060405180606001604052806030815260200161521160309139816004600b81106115c3576115c261425a565b5b60200201819052506115d4836110ed565b816005600b81106115e8576115e761425a565b5b602002018190525060405180606001604052806037815260200161537560379139816006600b811061161d5761161c61425a565b5b602002018190525061162e83610e10565b816007600b81106116425761164161425a565b5b602002018190525060405180606001604052806031815260200161524160319139816008600b81106116775761167661425a565b5b602002018190525061168883611980565b816009600b811061169c5761169b61425a565b5b60200201819052506040518060400160405280600d81526020017f3c2f746578743e3c2f7376673e0000000000000000000000000000000000000081525081600a600b81106116ee576116ed61425a565b5b60200201819052506000816000600b811061170c5761170b61425a565b5b6020020151826001600b81106117255761172461425a565b5b6020020151836002600b811061173e5761173d61425a565b5b6020020151846003600b81106117575761175661425a565b5b6020020151856004600b81106117705761176f61425a565b5b6020020151866005600b81106117895761178861425a565b5b6020020151876006600b81106117a2576117a161425a565b5b6020020151886007600b81106117bb576117ba61425a565b5b6020020151896008600b81106117d4576117d361425a565b5b60200201518a6009600b81106117ed576117ec61425a565b5b60200201518b600a600b81106118065761180561425a565b5b60200201516040516020016118259b9a99989796959493929190614289565b60405160208183030381529060405290508092505050919050565b60008073ffffffffffffffffffffffffffffffffffffffff168273ffffffffffffffffffffffffffffffffffffffff1614156118b1576040517f08c379a00000000000000000000000000000000000000000000000000000000081526004016118a890614394565b60405180910390fd5b600360008373ffffffffffffffffffffffffffffffffffffffff1673ffffffffffffffffffffffffffffffffffffffff168152602001908152602001600020549050919050565b61190061212e565b73ffffffffffffffffffffffffffffffffffffffff1661191e6119b0565b73ffffffffffffffffffffffffffffffffffffffff1614611974576040517f08c379a000000000000000000000000000000000000000000000000000000000815260040161196b9061403e565b60405180910390fd5b61197e60006127c9565b565b606060006001603c8461199391906143e3565b61199d9190614443565b90506119a88161288f565b915050919050565b6000600860009054906101000a900473ffffffffffffffffffffffffffffffffffffffff16905090565b7f000000000000000000000000000000000000000000000000000000000000000073ffffffffffffffffffffffffffffffffffffffff163373ffffffffffffffffffffffffffffffffffffffff1614611a68576040517f08c379a0000000000000000000000000000000000000000000000000000000008152600401611a5f906144e5565b60405180910390fd5b611a7282826129f0565b5050565b606060018054611a8590613d01565b80601f0160208091040260200160405190810160405280929190818152602001828054611ab190613d01565b8015611afe5780601f10611ad357610100808354040283529160200191611afe565b820191906000526020600020905b815481529060010190602001808311611ae157829003601f168201915b5050505050905090565b600b6020528060005260406000206000915090505481565b666a94d74f43000081565b611b3d611b3661212e565b8383612aa0565b5050565b6000666a94d74f430000905090565b611b61611b5b61212e565b836122a2565b611ba0576040517f08c379a0000000000000000000000000000000000000000000000000000000008152600401611b9790613fae565b60405180910390fd5b611bac84848484612c0d565b50505050565b60006107d7905090565b6060611bf0611bca8361288f565b84604051602001611bdc929190614681565b6040516020818303038152906040526125dc565b604051602001611c00919061471d565b604051602081830303815290604052905092915050565b6060611c22826120c2565b611c61576040517f08c379a0000000000000000000000000000000000000000000000000000000008152600401611c58906147b1565b60405180910390fd5b6000600660008481526020019081526020016000208054611c8190613d01565b80601f0160208091040260200160405190810160405280929190818152602001828054611cad90613d01565b8015611cfa5780601f10611ccf57610100808354040283529160200191611cfa565b820191906000526020600020905b815481529060010190602001808311611cdd57829003601f168201915b505050505090506000611d0b612c69565b9050600081511415611d21578192505050611d64565b600082511115611d56578082604051602001611d3e929190613fce565b60405160208183030381529060405292505050611d64565b611d5f84612c80565b925050505b919050565b60095481565b6107d781565b6000600560008473ffffffffffffffffffffffffffffffffffffffff1673ffffffffffffffffffffffffffffffffffffffff16815260200190815260200160002060008373ffffffffffffffffffffffffffffffffffffffff1673ffffffffffffffffffffffffffffffffffffffff16815260200190815260200160002060009054906101000a900460ff16905092915050565b60008060095490506107d78110611e55576040517f08c379a0000000000000000000000000000000000000000000000000000000008152600401611e4c90614843565b60405180910390fd5b666a94d74f430000341015611e9f576040517f08c379a0000000000000000000000000000000000000000000000000000000008152600401611e96906148af565b60405180910390fd5b611ead600d54600e54612d27565b915033600a600084815260200190815260200160002060006101000a81548173ffffffffffffffffffffffffffffffffffffffff021916908373ffffffffffffffffffffffffffffffffffffffff16021790555080600c6000848152602001908152602001600020819055506001600954611f289190614443565b60098190555080827f6c9e1af347ef8aaaa198a4aeb97b22bf44e71f2790ec43c55d9ae54348ec593860405160405180910390a35090565b611f6861212e565b73ffffffffffffffffffffffffffffffffffffffff16611f866119b0565b73ffffffffffffffffffffffffffffffffffffffff1614611fdc576040517f08c379a0000000000000000000000000000000000000000000000000000000008152600401611fd39061403e565b60405180910390fd5b600073ffffffffffffffffffffffffffffffffffffffff168173ffffffffffffffffffffffffffffffffffffffff16141561204c576040517f08c379a000000000000000000000000000000000000000000000000000000000815260040161204390614941565b60405180910390fd5b612055816127c9565b50565b60007f01ffc9a7000000000000000000000000000000000000000000000000000000007bffffffffffffffffffffffffffffffffffffffffffffffffffffffff1916827bffffffffffffffffffffffffffffffffffffffffffffffffffffffff1916149050919050565b60008073ffffffffffffffffffffffffffffffffffffffff166002600084815260200190815260200160002060009054906101000a900473ffffffffffffffffffffffffffffffffffffffff1673ffffffffffffffffffffffffffffffffffffffff1614159050919050565b600033905090565b816004600083815260200190815260200160002060006101000a81548173ffffffffffffffffffffffffffffffffffffffff021916908373ffffffffffffffffffffffffffffffffffffffff160217905550808273ffffffffffffffffffffffffffffffffffffffff166121a98361133d565b73ffffffffffffffffffffffffffffffffffffffff167f8c5be1e5ebec7d5bd14f71427d1e84f3dd0314c0f7b2291e5b200ac8c7c3b92560405160405180910390a45050565b6060600082905060008586518361220691906143e3565b815181106122175761221661425a565b5b60200260200101519050600060158361223091906143e3565b9050600d8111801561223f5750855b156122955781601280805490508561225791906143e3565b815481106122685761226761425a565b5b906000526020600020016040516020016122839291906149f5565b60405160208183030381529060405291505b8193505050509392505050565b60006122ad826120c2565b6122ec576040517f08c379a00000000000000000000000000000000000000000000000000000000081526004016122e390614a8b565b60405180910390fd5b60006122f78361133d565b90508073ffffffffffffffffffffffffffffffffffffffff168473ffffffffffffffffffffffffffffffffffffffff16148061236657508373ffffffffffffffffffffffffffffffffffffffff1661234e84610ab4565b73ffffffffffffffffffffffffffffffffffffffff16145b8061237757506123768185611d75565b5b91505092915050565b8273ffffffffffffffffffffffffffffffffffffffff166123a08261133d565b73ffffffffffffffffffffffffffffffffffffffff16146123f6576040517f08c379a00000000000000000000000000000000000000000000000000000000081526004016123ed90614b1d565b60405180910390fd5b600073ffffffffffffffffffffffffffffffffffffffff168273ffffffffffffffffffffffffffffffffffffffff161415612466576040517f08c379a000000000000000000000000000000000000000000000000000000000815260040161245d90614baf565b60405180910390fd5b612471838383612e7a565b61247c600082612136565b6001600360008573ffffffffffffffffffffffffffffffffffffffff1673ffffffffffffffffffffffffffffffffffffffff16815260200190815260200160002060008282546124cc9190614bcf565b925050819055506001600360008473ffffffffffffffffffffffffffffffffffffffff1673ffffffffffffffffffffffffffffffffffffffff16815260200190815260200160002060008282546125239190614443565b92505081905550816002600083815260200190815260200160002060006101000a81548173ffffffffffffffffffffffffffffffffffffffff021916908373ffffffffffffffffffffffffffffffffffffffff160217905550808273ffffffffffffffffffffffffffffffffffffffff168473ffffffffffffffffffffffffffffffffffffffff167fddf252ad1be2c89b69c2b068fc378daa952ba7f163c4a11628f55a4df523b3ef60405160405180910390a4505050565b60606000825114156125ff57604051806020016040528060008152509050612750565b60006040518060600160405280604081526020016153ac604091399050600060036002855161262e9190614443565b6126389190614c03565b60046126449190614c34565b905060006020826126559190614443565b67ffffffffffffffff81111561266e5761266d61389b565b5b6040519080825280601f01601f1916602001820160405280156126a05781602001600182028036833780820191505090505b509050818152600183018586518101602084015b8183101561270f576003830192508251603f8160121c168501518253600182019150603f81600c1c168501518253600182019150603f8160061c168501518253600182019150603f81168501518253600182019150506126b4565b600389510660018114612729576002811461273957612744565b613d3d60f01b6002830352612744565b603d60f81b60018303525b50505050508093505050505b919050565b61275e826120c2565b61279d576040517f08c379a000000000000000000000000000000000000000000000000000000000815260040161279490614d00565b60405180910390fd5b806006600084815260200190815260200160002090805190602001906127c4929190613459565b505050565b6000600860009054906101000a900473ffffffffffffffffffffffffffffffffffffffff16905081600860006101000a81548173ffffffffffffffffffffffffffffffffffffffff021916908373ffffffffffffffffffffffffffffffffffffffff1602179055508173ffffffffffffffffffffffffffffffffffffffff168173ffffffffffffffffffffffffffffffffffffffff167f8be0079c531659141344cd1fd0a4f28419497f9722a3daafe3b4186f6b6457e060405160405180910390a35050565b606060008214156128d7576040518060400160405280600181526020017f300000000000000000000000000000000000000000000000000000000000000081525090506129eb565b600082905060005b600082146129095780806128f290614d20565b915050600a826129029190614c03565b91506128df565b60008167ffffffffffffffff8111156129255761292461389b565b5b6040519080825280601f01601f1916602001820160405280156129575781602001600182028036833780820191505090505b5090505b600085146129e4576001826129709190614bcf565b9150600a8561297f91906143e3565b603061298b9190614443565b60f81b8183815181106129a1576129a061425a565b5b60200101907effffffffffffffffffffffffffffffffffffffffffffffffffffffffffffff1916908160001a905350600a856129dd9190614c03565b945061295b565b8093505050505b919050565b6000600a600084815260200190815260200160002060009054906101000a900473ffffffffffffffffffffffffffffffffffffffff1690506000600c6000858152602001908152602001600020549050612a4a8282612e7f565b82600b600083815260200190815260200160002081905550807fcaad737ab196c4822a77a40aaada209033e622db5075af6a1aa04d4d256e087a84604051612a9291906135e4565b60405180910390a250505050565b8173ffffffffffffffffffffffffffffffffffffffff168373ffffffffffffffffffffffffffffffffffffffff161415612b0f576040517f08c379a0000000000000000000000000000000000000000000000000000000008152600401612b0690614db5565b60405180910390fd5b80600560008573ffffffffffffffffffffffffffffffffffffffff1673ffffffffffffffffffffffffffffffffffffffff16815260200190815260200160002060008473ffffffffffffffffffffffffffffffffffffffff1673ffffffffffffffffffffffffffffffffffffffff16815260200190815260200160002060006101000a81548160ff0219169083151502179055508173ffffffffffffffffffffffffffffffffffffffff168373ffffffffffffffffffffffffffffffffffffffff167f17307eab39ab6107e8899845ad3d59bd9653f200f220920489ca2b5937696c3183604051612c0091906135b0565b60405180910390a3505050565b612c18848484612380565b612c2484848484612e9d565b612c63576040517f08c379a0000000000000000000000000000000000000000000000000000000008152600401612c5a90614e47565b60405180910390fd5b50505050565b606060405180602001604052806000815250905090565b6060612c8b826120c2565b612cca576040517f08c379a0000000000000000000000000000000000000000000000000000000008152600401612cc190614ed9565b60405180910390fd5b6000612cd4612c69565b90506000815111612cf45760405180602001604052806000815250612d1f565b80612cfe84613025565b604051602001612d0f929190613fce565b6040516020818303038152906040525b915050919050565b60007f000000000000000000000000000000000000000000000000000000000000000073ffffffffffffffffffffffffffffffffffffffff16634000aea07f000000000000000000000000000000000000000000000000000000000000000084866000604051602001612d9b929190614ef9565b6040516020818303038152906040526040518463ffffffff1660e01b8152600401612dc893929190614f77565b6020604051808303816000875af1158015612de7573d6000803e3d6000fd5b505050506040513d601f19601f82011682018060405250810190612e0b9190614fca565b506000612e2e846000306007600089815260200190815260200160002054613186565b905060016007600086815260200190815260200160002054612e509190614443565b6007600086815260200190815260200160002081905550612e7184826131c2565b91505092915050565b505050565b612e998282604051806020016040528060008152506131f5565b5050565b6000612ebe8473ffffffffffffffffffffffffffffffffffffffff16613250565b15613018578373ffffffffffffffffffffffffffffffffffffffff1663150b7a02612ee761212e565b8786866040518563ffffffff1660e01b8152600401612f099493929190614ff7565b6020604051808303816000875af1925050508015612f4557506040513d601f19601f82011682018060405250810190612f429190615058565b60015b612fc8573d8060008114612f75576040519150601f19603f3d011682016040523d82523d6000602084013e612f7a565b606091505b50600081511415612fc0576040517f08c379a0000000000000000000000000000000000000000000000000000000008152600401612fb790614e47565b60405180910390fd5b805181602001fd5b63150b7a0260e01b7bffffffffffffffffffffffffffffffffffffffffffffffffffffffff1916817bffffffffffffffffffffffffffffffffffffffffffffffffffffffff19161491505061301d565b600190505b949350505050565b6060600082141561306d576040518060400160405280600181526020017f30000000000000000000000000000000000000000000000000000000000000008152509050613181565b600082905060005b6000821461309f57808061308890614d20565b915050600a826130989190614c03565b9150613075565b60008167ffffffffffffffff8111156130bb576130ba61389b565b5b6040519080825280601f01601f1916602001820160405280156130ed5781602001600182028036833780820191505090505b5090505b6000851461317a576001826131069190614bcf565b9150600a8561311591906143e3565b60306131219190614443565b60f81b8183815181106131375761313661425a565b5b60200101907effffffffffffffffffffffffffffffffffffffffffffffffffffffffffffff1916908160001a905350600a856131739190614c03565b94506130f1565b8093505050505b919050565b60008484848460405160200161319f9493929190615085565b6040516020818303038152906040528051906020012060001c9050949350505050565b600082826040516020016131d792919061510c565b60405160208183030381529060405280519060200120905092915050565b6131ff8383613263565b61320c6000848484612e9d565b61324b576040517f08c379a000000000000000000000000000000000000000000000000000000000815260040161324290614e47565b60405180910390fd5b505050565b600080823b905060008111915050919050565b600073ffffffffffffffffffffffffffffffffffffffff168273ffffffffffffffffffffffffffffffffffffffff1614156132d3576040517f08c379a00000000000000000000000000000000000000000000000000000000081526004016132ca90615184565b60405180910390fd5b6132dc816120c2565b1561331c576040517f08c379a0000000000000000000000000000000000000000000000000000000008152600401613313906151f0565b60405180910390fd5b61332860008383612e7a565b6001600360008473ffffffffffffffffffffffffffffffffffffffff1673ffffffffffffffffffffffffffffffffffffffff16815260200190815260200160002060008282546133789190614443565b92505081905550816002600083815260200190815260200160002060006101000a81548173ffffffffffffffffffffffffffffffffffffffff021916908373ffffffffffffffffffffffffffffffffffffffff160217905550808273ffffffffffffffffffffffffffffffffffffffff16600073ffffffffffffffffffffffffffffffffffffffff167fddf252ad1be2c89b69c2b068fc378daa952ba7f163c4a11628f55a4df523b3ef60405160405180910390a45050565b604051806101600160405280600b905b60608152602001906001900390816134415790505090565b82805461346590613d01565b90600052602060002090601f01602090048101928261348757600085556134ce565b82601f106134a057805160ff19168380011785556134ce565b828001600101855582156134ce579182015b828111156134cd5782518255916020019190600101906134b2565b5b5090506134db91906134df565b5090565b5b808211156134f85760008160009055506001016134e0565b5090565b6000604051905090565b600080fd5b600080fd5b60007fffffffff0000000000000000000000000000000000000000000000000000000082169050919050565b61354581613510565b811461355057600080fd5b50565b6000813590506135628161353c565b92915050565b60006020828403121561357e5761357d613506565b5b600061358c84828501613553565b91505092915050565b60008115159050919050565b6135aa81613595565b82525050565b60006020820190506135c560008301846135a1565b92915050565b6000819050919050565b6135de816135cb565b82525050565b60006020820190506135f960008301846135d5565b92915050565b600081519050919050565b600082825260208201905092915050565b60005b8381101561363957808201518184015260208101905061361e565b83811115613648576000848401525b50505050565b6000601f19601f8301169050919050565b600061366a826135ff565b613674818561360a565b935061368481856020860161361b565b61368d8161364e565b840191505092915050565b600060208201905081810360008301526136b2818461365f565b905092915050565b6136c3816135cb565b81146136ce57600080fd5b50565b6000813590506136e0816136ba565b92915050565b6000602082840312156136fc576136fb613506565b5b600061370a848285016136d1565b91505092915050565b600073ffffffffffffffffffffffffffffffffffffffff82169050919050565b600061373e82613713565b9050919050565b61374e81613733565b82525050565b60006020820190506137696000830184613745565b92915050565b61377881613733565b811461378357600080fd5b50565b6000813590506137958161376f565b92915050565b600080604083850312156137b2576137b1613506565b5b60006137c085828601613786565b92505060206137d1858286016136d1565b9150509250929050565b6000819050919050565b6137ee816137db565b81146137f957600080fd5b50565b60008135905061380b816137e5565b92915050565b60006020828403121561382757613826613506565b5b6000613835848285016137fc565b91505092915050565b60008060006060848603121561385757613856613506565b5b600061386586828701613786565b935050602061387686828701613786565b9250506040613887868287016136d1565b9150509250925092565b600080fd5b600080fd5b7f4e487b7100000000000000000000000000000000000000000000000000000000600052604160045260246000fd5b6138d38261364e565b810181811067ffffffffffffffff821117156138f2576138f161389b565b5b80604052505050565b60006139056134fc565b905061391182826138ca565b919050565b600067ffffffffffffffff8211156139315761393061389b565b5b61393a8261364e565b9050602081019050919050565b82818337600083830152505050565b600061396961396484613916565b6138fb565b90508281526020810184848401111561398557613984613896565b5b613990848285613947565b509392505050565b600082601f8301126139ad576139ac613891565b5b81356139bd848260208601613956565b91505092915050565b6000602082840312156139dc576139db613506565b5b600082013567ffffffffffffffff8111156139fa576139f961350b565b5b613a0684828501613998565b91505092915050565b600060208284031215613a2557613a24613506565b5b6000613a3384828501613786565b91505092915050565b60008060408385031215613a5357613a52613506565b5b6000613a61858286016137fc565b9250506020613a72858286016136d1565b9150509250929050565b613a8581613595565b8114613a9057600080fd5b50565b600081359050613aa281613a7c565b92915050565b60008060408385031215613abf57613abe613506565b5b6000613acd85828601613786565b9250506020613ade85828601613a93565b9150509250929050565b600067ffffffffffffffff821115613b0357613b0261389b565b5b613b0c8261364e565b9050602081019050919050565b6000613b2c613b2784613ae8565b6138fb565b905082815260208101848484011115613b4857613b47613896565b5b613b53848285613947565b509392505050565b600082601f830112613b7057613b6f613891565b5b8135613b80848260208601613b19565b91505092915050565b60008060008060808587031215613ba357613ba2613506565b5b6000613bb187828801613786565b9450506020613bc287828801613786565b9350506040613bd3878288016136d1565b925050606085013567ffffffffffffffff811115613bf457613bf361350b565b5b613c0087828801613b5b565b91505092959194509250565b60008060408385031215613c2357613c22613506565b5b600083013567ffffffffffffffff811115613c4157613c4061350b565b5b613c4d85828601613998565b9250506020613c5e858286016136d1565b9150509250929050565b60008060408385031215613c7f57613c7e613506565b5b6000613c8d85828601613786565b9250506020613c9e85828601613786565b9150509250929050565b613cb1816137db565b82525050565b6000602082019050613ccc6000830184613ca8565b92915050565b7f4e487b7100000000000000000000000000000000000000000000000000000000600052602260045260246000fd5b60006002820490506001821680613d1957607f821691505b60208210811415613d2d57613d2c613cd2565b5b50919050565b7f4552433732313a20617070726f76656420717565727920666f72206e6f6e657860008201527f697374656e7420746f6b656e0000000000000000000000000000000000000000602082015250565b6000613d8f602c8361360a565b9150613d9a82613d33565b604082019050919050565b60006020820190508181036000830152613dbe81613d82565b9050919050565b7f4552433732313a20617070726f76616c20746f2063757272656e74206f776e6560008201527f7200000000000000000000000000000000000000000000000000000000000000602082015250565b6000613e2160218361360a565b9150613e2c82613dc5565b604082019050919050565b60006020820190508181036000830152613e5081613e14565b9050919050565b7f4552433732313a20617070726f76652063616c6c6572206973206e6f74206f7760008201527f6e6572206e6f7220617070726f76656420666f7220616c6c0000000000000000602082015250565b6000613eb360388361360a565b9150613ebe82613e57565b604082019050919050565b60006020820190508181036000830152613ee281613ea6565b9050919050565b600081905092915050565b6000613eff826135ff565b613f098185613ee9565b9350613f1981856020860161361b565b80840191505092915050565b6000613f318284613ef4565b915081905092915050565b7f4552433732313a207472616e736665722063616c6c6572206973206e6f74206f60008201527f776e6572206e6f7220617070726f766564000000000000000000000000000000602082015250565b6000613f9860318361360a565b9150613fa382613f3c565b604082019050919050565b60006020820190508181036000830152613fc781613f8b565b9050919050565b6000613fda8285613ef4565b9150613fe68284613ef4565b91508190509392505050565b7f4f776e61626c653a2063616c6c6572206973206e6f7420746865206f776e6572600082015250565b600061402860208361360a565b915061403382613ff2565b602082019050919050565b600060208201905081810360008301526140578161401b565b9050919050565b7f746f6b656e55524920697320616c726561647920736574210000000000000000600082015250565b600061409460188361360a565b915061409f8261405e565b602082019050919050565b600060208201905081810360008301526140c381614087565b9050919050565b7f546f6b656e496420686173206e6f74206265656e206d696e7465642079657421600082015250565b600061410060208361360a565b915061410b826140ca565b602082019050919050565b6000602082019050818103600083015261412f816140f3565b9050919050565b7f4e65656420746f207761697420666f722074686520436861696e6c696e6b206e60008201527f6f646520746f20726573706f6e64210000000000000000000000000000000000602082015250565b6000614192602f8361360a565b915061419d82614136565b604082019050919050565b600060208201905081810360008301526141c181614185565b9050919050565b7f4552433732313a206f776e657220717565727920666f72206e6f6e657869737460008201527f656e7420746f6b656e0000000000000000000000000000000000000000000000602082015250565b600061422460298361360a565b915061422f826141c8565b604082019050919050565b6000602082019050818103600083015261425381614217565b9050919050565b7f4e487b7100000000000000000000000000000000000000000000000000000000600052603260045260246000fd5b6000614295828e613ef4565b91506142a1828d613ef4565b91506142ad828c613ef4565b91506142b9828b613ef4565b91506142c5828a613ef4565b91506142d18289613ef4565b91506142dd8288613ef4565b91506142e98287613ef4565b91506142f58286613ef4565b91506143018285613ef4565b915061430d8284613ef4565b91508190509c9b505050505050505050505050565b7f4552433732313a2062616c616e636520717565727920666f7220746865207a6560008201527f726f206164647265737300000000000000000000000000000000000000000000602082015250565b600061437e602a8361360a565b915061438982614322565b604082019050919050565b600060208201905081810360008301526143ad81614371565b9050919050565b7f4e487b7100000000000000000000000000000000000000000000000000000000600052601260045260246000fd5b60006143ee826135cb565b91506143f9836135cb565b925082614409576144086143b4565b5b828206905092915050565b7f4e487b7100000000000000000000000000000000000000000000000000000000600052601160045260246000fd5b600061444e826135cb565b9150614459836135cb565b9250827fffffffffffffffffffffffffffffffffffffffffffffffffffffffffffffffff0382111561448e5761448d614414565b5b828201905092915050565b7f4f6e6c7920565246436f6f7264696e61746f722063616e2066756c66696c6c00600082015250565b60006144cf601f8361360a565b91506144da82614499565b602082019050919050565b600060208201905081810360008301526144fe816144c2565b9050919050565b7f7b226e616d65223a220000000000000000000000000000000000000000000000600082015250565b600061453b600983613ee9565b915061454682614505565b600982019050919050565b7f466f72676f7474656e20416476656e7475726572202300000000000000000000600082015250565b6000614587601683613ee9565b915061459282614551565b601682019050919050565b7f222c20226465736372697074696f6e223a22412072616e646f6d6c792067656e60008201527f65726174656420417a65726f746869616e20616476656e7475726572222c202260208201527f61747472696275746573223a22222c2022696d616765223a2200000000000000604082015250565b600061461f605983613ee9565b915061462a8261459d565b605982019050919050565b7f227d000000000000000000000000000000000000000000000000000000000000600082015250565b600061466b600283613ee9565b915061467682614635565b600282019050919050565b600061468c8261452e565b91506146978261457a565b91506146a38285613ef4565b91506146ae82614612565b91506146ba8284613ef4565b91506146c58261465e565b91508190509392505050565b7f646174613a6170706c69636174696f6e2f6a736f6e3b6261736536342c000000600082015250565b6000614707601d83613ee9565b9150614712826146d1565b601d82019050919050565b6000614728826146fa565b91506147348284613ef4565b915081905092915050565b7f45524337323155524953746f726167653a2055524920717565727920666f722060008201527f6e6f6e6578697374656e7420746f6b656e000000000000000000000000000000602082015250565b600061479b60318361360a565b91506147a68261473f565b604082019050919050565b600060208201905081810360008301526147ca8161478e565b9050919050565b7f416c6c204e46542773206861766520616c7265616479206265656e206d696e7460008201527f6564000000000000000000000000000000000000000000000000000000000000602082015250565b600061482d60228361360a565b9150614838826147d1565b604082019050919050565b6000602082019050818103600083015261485c81614820565b9050919050565b7f53656e64206d6f61722065746865720000000000000000000000000000000000600082015250565b6000614899600f8361360a565b91506148a482614863565b602082019050919050565b600060208201905081810360008301526148c88161488c565b9050919050565b7f4f776e61626c653a206e6577206f776e657220697320746865207a65726f206160008201527f6464726573730000000000000000000000000000000000000000000000000000602082015250565b600061492b60268361360a565b9150614936826148cf565b604082019050919050565b6000602082019050818103600083015261495a8161491e565b9050919050565b60008190508160005260206000209050919050565b6000815461498381613d01565b61498d8186613ee9565b945060018216600081146149a857600181146149b9576149ec565b60ff198316865281860193506149ec565b6149c285614961565b60005b838110156149e4578154818901526001820191506020810190506149c5565b838801955050505b50505092915050565b6000614a018285613ef4565b9150614a0d8284614976565b91508190509392505050565b7f4552433732313a206f70657261746f7220717565727920666f72206e6f6e657860008201527f697374656e7420746f6b656e0000000000000000000000000000000000000000602082015250565b6000614a75602c8361360a565b9150614a8082614a19565b604082019050919050565b60006020820190508181036000830152614aa481614a68565b9050919050565b7f4552433732313a207472616e73666572206f6620746f6b656e2074686174206960008201527f73206e6f74206f776e0000000000000000000000000000000000000000000000602082015250565b6000614b0760298361360a565b9150614b1282614aab565b604082019050919050565b60006020820190508181036000830152614b3681614afa565b9050919050565b7f4552433732313a207472616e7366657220746f20746865207a65726f2061646460008201527f7265737300000000000000000000000000000000000000000000000000000000602082015250565b6000614b9960248361360a565b9150614ba482614b3d565b604082019050919050565b60006020820190508181036000830152614bc881614b8c565b9050919050565b6000614bda826135cb565b9150614be5836135cb565b925082821015614bf857614bf7614414565b5b828203905092915050565b6000614c0e826135cb565b9150614c19836135cb565b925082614c2957614c286143b4565b5b828204905092915050565b6000614c3f826135cb565b9150614c4a836135cb565b9250817fffffffffffffffffffffffffffffffffffffffffffffffffffffffffffffffff0483118215151615614c8357614c82614414565b5b828202905092915050565b7f45524337323155524953746f726167653a2055524920736574206f66206e6f6e60008201527f6578697374656e7420746f6b656e000000000000000000000000000000000000602082015250565b6000614cea602e8361360a565b9150614cf582614c8e565b604082019050919050565b60006020820190508181036000830152614d1981614cdd565b9050919050565b6000614d2b826135cb565b91507fffffffffffffffffffffffffffffffffffffffffffffffffffffffffffffffff821415614d5e57614d5d614414565b5b600182019050919050565b7f4552433732313a20617070726f766520746f2063616c6c657200000000000000600082015250565b6000614d9f60198361360a565b9150614daa82614d69565b602082019050919050565b60006020820190508181036000830152614dce81614d92565b9050919050565b7f4552433732313a207472616e7366657220746f206e6f6e20455243373231526560008201527f63656976657220696d706c656d656e7465720000000000000000000000000000602082015250565b6000614e3160328361360a565b9150614e3c82614dd5565b604082019050919050565b60006020820190508181036000830152614e6081614e24565b9050919050565b7f4552433732314d657461646174613a2055524920717565727920666f72206e6f60008201527f6e6578697374656e7420746f6b656e0000000000000000000000000000000000602082015250565b6000614ec3602f8361360a565b9150614ece82614e67565b604082019050919050565b60006020820190508181036000830152614ef281614eb6565b9050919050565b6000604082019050614f0e6000830185613ca8565b614f1b60208301846135d5565b9392505050565b600081519050919050565b600082825260208201905092915050565b6000614f4982614f22565b614f538185614f2d565b9350614f6381856020860161361b565b614f6c8161364e565b840191505092915050565b6000606082019050614f8c6000830186613745565b614f9960208301856135d5565b8181036040830152614fab8184614f3e565b9050949350505050565b600081519050614fc481613a7c565b92915050565b600060208284031215614fe057614fdf613506565b5b6000614fee84828501614fb5565b91505092915050565b600060808201905061500c6000830187613745565b6150196020830186613745565b61502660408301856135d5565b81810360608301526150388184614f3e565b905095945050505050565b6000815190506150528161353c565b92915050565b60006020828403121561506e5761506d613506565b5b600061507c84828501615043565b91505092915050565b600060808201905061509a6000830187613ca8565b6150a760208301866135d5565b6150b46040830185613745565b6150c160608301846135d5565b95945050505050565b6000819050919050565b6150e56150e0826137db565b6150ca565b82525050565b6000819050919050565b615106615101826135cb565b6150eb565b82525050565b600061511882856150d4565b60208201915061512882846150f5565b6020820191508190509392505050565b7f4552433732313a206d696e7420746f20746865207a65726f2061646472657373600082015250565b600061516e60208361360a565b915061517982615138565b602082019050919050565b6000602082019050818103600083015261519d81615161565b9050919050565b7f4552433732313a20746f6b656e20616c7265616479206d696e74656400000000600082015250565b60006151da601c8361360a565b91506151e5826151a4565b602082019050919050565b60006020820190508181036000830152615209816151cd565b905091905056fe3c2f746578743e3c7465787420783d2231302220793d2236302220636c6173733d2262617365223e20436c6173733a203c2f746578743e3c7465787420783d2231302220793d223130302220636c6173733d2262617365223e204c6576656c3a203c73766720786d6c6e733d22687474703a2f2f7777772e77332e6f72672f323030302f73766722207072657365727665417370656374526174696f3d22784d696e594d696e206d656574222076696577426f783d223020302033353020333530223e3c7374796c653e2e62617365207b2066696c6c3a2077686974653b20666f6e742d66616d696c793a2073657269663b20666f6e742d73697a653a20313470783b207d3c2f7374796c653e3c726563742077696474683d223130302522206865696768743d2231303025222066696c6c3d22626c61636b22202f3e3c7465787420783d2231302220793d2232302220636c6173733d2262617365223e4e616d653a203c2f746578743e3c7465787420783d2231302220793d2238302220636c6173733d2262617365223e204c6173742053706f747465643a204142434445464748494a4b4c4d4e4f505152535455565758595a6162636465666768696a6b6c6d6e6f707172737475767778797a303132333435363738392b2f3c2f746578743e3c7465787420783d2231302220793d2234302220636c6173733d2262617365223e20526163653a20a2646970667358221220033b898a81c6a94dca895a7d9e1eb6fffb0ff233fbd27b7615e16967833d379264736f6c634300080b0033",
  "immutableReferences": {
    "73": [
      {
        "length": 32,
        "start": 11563
      }
    ],
    "75": [
      {
        "length": 32,
        "start": 6620
      },
      {
        "length": 32,
        "start": 11623
      }
    ]
  },
  "source": "// SPDX-License-Identifier: MIT\npragma solidity ^0.8.0;\n\nimport \"@openzeppelin/contracts/token/ERC721/extensions/ERC721URIStorage.sol\";\nimport \"@chainlink/contracts/src/v0.8/VRFConsumerBase.sol\";\nimport \"@openzeppelin/contracts/access/Ownable.sol\";\nimport \"base64-sol/base64.sol\";\n\n/// @title Randomly generated adventurers from Azeroth\n/// @author Matt Kalebic\n/// @dev This contract uses Chainlink VRF (Verifiable Random Function) as a provably-fair and verifiable source of randomness for adventurers\n\n/// This project was built out of nostalgia for the early years of World of Warcraft\n/// Seeing how empty Azeroth is these days, I'm reminded of all the adventurers that logged off for the last time years ago\n/// The randomly generated descriptions in this contract evoke a sense of reflection on the lore behind each Forgotten Adventurer\n\ncontract ForgottenAdventurers is ERC721URIStorage, VRFConsumerBase, Ownable {\n    uint256 public tokenCounter;\n\n    /// @dev Sets the maximum amount mintable\n    uint256 public constant maxAvailable = 2007;\n    /// @dev Sets the mint price in wei\n    uint256 public constant price = 30000000000000000; // 0.03 ETH\n\n    /// @dev Emitted when an adventurer is generated and the initial request for randomness has been made\n    event requestedAdventurer(bytes32 indexed requestId, uint256 indexed tokenId); \n    /// @dev Emitted in the fulfillRandomness callback function after randomness has been received from the VRF\n    event CreatedUnfinishedAdventurer(uint256 indexed tokenId, uint256 randomNumber);\n    /// @dev Emitted after randomness has been used to generate an adventurer and finalize minting\n    event CreatedAdventurer(uint256 indexed tokenId, string tokenURI); \n    \n    /// @notice With every new request for randomness, Chainlink VRF generates a random number and cryptographic proof of how that number was determined\n    /// @notice This proof is published and verified on-chain before it can be used by any consuming applications\n    /// @notice You should expect a few minutes of delay between when a random number is requested vs. received based on network congestion and responsiveness\n\n    /// @dev Requirements for the Chainlink VRF\n    mapping(bytes32 => address) public requestIdToSender;\n    mapping(uint256 => uint256) public tokenIdToRandomNumber;\n    mapping(bytes32 => uint256) public requestIdToTokenId;\n    bytes32 internal keyHash;\n    uint256 internal fee;\n\n    string[] private adventurerNames = [\n        \"Buckle\",\n        \"Enysin\",\n        \"Vallin\",\n        \"Brunth\", \n        \"Celeste\",\n        \"Brombr\",\n        \"Flinte\",\n        \"Rumdar\"\n    ];\n\n    /// @dev Used to define a mapping between adventurer names and races\n    mapping(string => string) races;\n\n    string[] private classes = [\n        \"Warrior\",\n        \"Paladin\", \n        \"Druid\",\n        \"Rogue\",\n        \"Priest\",\n        \"Shaman\",\n        \"Mage\",\n        \"Warlock\",\n        \"Hunter\"\n    ];\n\n    string[] private suffixes = [\n        \", Hand of A'dal\",\n        \" of the Shattered Sun\",\n        \" Jenkins\",\n        \" the Patient\",\n        \" the Hallowed\"\n    ];\n\n    string[] private locations = [\n        \"Silverpine Forest\",\n        \"Feralas\",\n        \"Stormwind Bank\",\n        \"Swamp of Sorrows\",\n        \"Dun Morogh\",\n        \"Ashenvale\",\n        \"Wailing Caverns\",\n        \"Winterspring\",\n        \"Southshore\",\n        \"Tarren Mill\"\n    ];\n\n    constructor(address _VRFCoordinator, address _LinkToken, bytes32 _keyhash, uint256 _fee) VRFConsumerBase(_VRFCoordinator, _LinkToken) ERC721(\"ForgottenAdventurers\", \"ADVNTR\") Ownable() {\n\n    tokenCounter = 0;\n    keyHash = _keyhash;\n    fee = _fee;\n\n    /// @notice Full mapping between adventurer names and races\n    races[\"Buckle\"] = \"Gnome\";\n    races[\"Enysin\"] = \"Night Elf\";\n    races[\"Vallin\"] = \"Human\";\n    races[\"Brunth\"] = \"Orc\";\n    races[\"Celeste\"] = \"Undead\";\n    races[\"Brombr\"] = \"Dwarf\";\n    races[\"Flinte\"] = \"Troll\";\n    races[\"Rumdar\"] = \"Tauren\";\n}    \n\n    /// @notice Randomly chooses an adventurer's name using the pluckString() function \n    /// @param _randomNumber The random number received from Chainlink VRF\n    /// @return String value for the randomly selected name\n    function getName(uint256 _randomNumber) public view returns (string memory) {\n        return pluckString(adventurerNames, true, _randomNumber);\n    }\n\n    /// @notice Randomly chooses an adventurer's race using the pluckString() function \n    /// @param _randomNumber The random number received from Chainlink VRF\n    /// @return String value for the randomly selected race\n    function getRace(uint256 _randomNumber) public view returns (string memory) {\n        return races[pluckString(adventurerNames, false, _randomNumber)];\n    }\n\n    /// @notice Randomly chooses an adventurer's class using the pluckString() function \n    /// @param _randomNumber The random number received from Chainlink VRF\n    /// @return String value for the randomly selected class\n    function getClass(uint256 _randomNumber) public view returns (string memory) {\n        return pluckString(classes, false, _randomNumber);\n    }\n\n    /// @notice Randomly chooses an adventurer's last seen location using the pluckString() function \n    /// @param _randomNumber The random number received from Chainlink VRF\n    /// @return String value for the randomly selected location\n    function getLastSeen(uint256 _randomNumber) public view returns (string memory) {\n        return pluckString(locations, false, _randomNumber);\n    }\n\n    /// @notice Reusable function to randomly select a value from a list of options using Chainlink VRF\n    /// @dev Inspired by Spells (for Wizards and other Adventurers) - MIT license\n    /// https://etherscan.io/address/0x38e942948cea825992f105e0ec4a2ee9138afae4#code \n    /// @param _sourceArray Array containing all possible options to choose from\n    /// @param _addSuffix Indicator for whether the attribute we're selecting a value for should be eligible for rare suffixes\n    /// @param _randomNumber The random number received from Chainlink VRF\n    /// @return String value for the randomly selected value, with rare suffix added if eligible\n    function pluckString(string[] memory _sourceArray, bool _addSuffix, uint256 _randomNumber) internal view returns (string memory) {\n        uint256 rand = _randomNumber;\n        string memory output = _sourceArray[rand % _sourceArray.length];\n        uint256 greatness = rand % 21;\n        if (greatness > 13 && _addSuffix) {\n            output = string(abi.encodePacked(output, suffixes[rand % suffixes.length]));\n        }\n        return output;\n    }\n\n    /// @notice Randomly chooses an adventurer's level using output from the Chainlink VRF\n    /// @dev Taken from Chainlink's Best Practices document\n    /// https://docs.chain.link/docs/chainlink-vrf-best-practices/#getting-a-random-number-within-a-range \n    /// @param _randomNumber The random number received from Chainlink VRF\n    /// @return Randomly generated level between 1-60\n    function getLevel(uint256 _randomNumber) public pure returns (string memory) {\n        uint256 value = (_randomNumber % 60) + 1;\n        return toString(value);\n}\n    /// @dev Inspired by OraclizeAPI's implementation - MIT license\n    /// https://github.com/oraclize/ethereum-api/blob/b42146b063c7d6ee1358846c198246239e9360e8/oraclizeAPI_0.4.25.sol\n    /// @return Number represented in string format\n    function toString(uint256 value) internal pure returns (string memory) {\n\n        if (value == 0) {\n            return \"0\";\n        }\n        uint256 temp = value;\n        uint256 digits;\n        while (temp != 0) {\n            digits++;\n            temp /= 10;\n        }\n        bytes memory buffer = new bytes(digits);\n        while (value != 0) {\n            digits -= 1;\n            buffer[digits] = bytes1(uint8(48 + uint256(value % 10)));\n            value /= 10;\n        }\n        return string(buffer);\n    }\n\n    /// @notice Usable by the owner to withdraw funds from the contract\n    function withdraw() public payable onlyOwner {\n        payable(owner()).transfer(address(this).balance);\n    }\n\n    /// @notice Get total number of NFT's minted\n    /// @return Total number of NFT's minted\n    function getTotalNFTsMintedSoFar() external view returns (uint256) {\n      return tokenCounter;\n  }\n\n    /// @notice Get the maximum number of NFT's available\n    /// @return Maximum number of NFT's available\n  function getMaxAvailable() external pure returns (uint256) {\n      return maxAvailable;\n  }\n\n    /// @notice Get the mint price\n    /// @return Mint price for one NFT\n  function getMintPrice() external pure returns (uint256) {\n      return price;\n  }\n\n    /// @notice Requests a random number from the Chainlink VRF and creates a new token ID\n    /// @dev Includes additional checks based on # of tokens minted and mint price\n    /// @dev Inspired by Patrick Collins' RandomSVG.sol contract \n    /// https://github.com/PatrickAlphaC/all-on-chain-generated-nft/blob/main/contracts/RandomSVG.sol - MIT license\n    /// @param _requestId ID of the request to Chainlink VRF\n    /// @return _requestId of the request made to Chainlink VRF\n    function create() public payable returns (bytes32 _requestId) {\n        uint256 tokenId = tokenCounter;\n        require(tokenId < maxAvailable, \"All NFT's have already been minted\");\n        require(\n            msg.value >= price,\n            \"Send moar ether\"\n        );\n        _requestId = requestRandomness(keyHash, fee);\n        requestIdToSender[_requestId] = msg.sender;\n        requestIdToTokenId[_requestId] = tokenId;\n        tokenCounter = tokenCounter + 1;\n        emit requestedAdventurer(_requestId, tokenId);\n    }\n\n    \n    /// @notice Receives a random number from the Chainlink VRF and uses that to finish generating an adventurer\n    /// @dev It takes a few minutes for the Chainlink VRF to receive and respond to your request\n    /// @param _tokenId ID of the newly-minted token\n    function finishMint(uint256 _tokenId) public {\n        require(bytes(tokenURI(_tokenId)).length <= 0, \"tokenURI is already set!\"); \n        require(tokenCounter > _tokenId, \"TokenId has not been minted yet!\");\n        require(tokenIdToRandomNumber[_tokenId] > 0, \"Need to wait for the Chainlink node to respond!\");\n        uint256 randomNumber = tokenIdToRandomNumber[_tokenId];\n        string memory svg = generateSVG(randomNumber);\n        string memory imageURI = svgToImageURI(svg);\n        _setTokenURI(_tokenId, formatTokenURI(imageURI, _tokenId));\n        emit CreatedAdventurer(_tokenId, svg);\n    }\n\n    /// @dev Customizes the Chainlink VRF callback function\n    /// @param _requestId ID of the request to Chainlink VRF\n    /// @param _randomNumber The random number received from Chainlink VRF\n    function fulfillRandomness(bytes32 _requestId, uint256 _randomNumber) internal override {\n        address nftOwner = requestIdToSender[_requestId];\n        uint256 tokenId = requestIdToTokenId[_requestId];\n        _safeMint(nftOwner, tokenId);\n        tokenIdToRandomNumber[tokenId] = _randomNumber;\n        emit CreatedUnfinishedAdventurer(tokenId, _randomNumber);\n    }\n\n    /// @notice Creates our image for the NFT\n    /// @dev Dynamically generates an SVG using the trait creation functions defined above\n    /// @param _randomNumber The random number received from Chainlink VRF\n    /// @return finalSvg The assembled image for our NFT representing an Adventurer's information\n    function generateSVG(uint256 _randomNumber) public view returns (string memory) {\n        string[11] memory parts;\n        parts[0] = '<svg xmlns=\"http://www.w3.org/2000/svg\" preserveAspectRatio=\"xMinYMin meet\" viewBox=\"0 0 350 350\"><style>.base { fill: white; font-family: serif; font-size: 14px; }</style><rect width=\"100%\" height=\"100%\" fill=\"black\" /><text x=\"10\" y=\"20\" class=\"base\">Name: ';\n\n        parts[1] = getName(_randomNumber);\n\n        parts[2] = '</text><text x=\"10\" y=\"40\" class=\"base\"> Race: ';\n\n        parts[3] = getRace(_randomNumber);\n\n        parts[4] = '</text><text x=\"10\" y=\"60\" class=\"base\"> Class: ';\n\n        parts[5] = getClass(_randomNumber);\n\n        parts[6] = '</text><text x=\"10\" y=\"80\" class=\"base\"> Last Spotted: ';\n\n        parts[7] = getLastSeen(_randomNumber);\n\n        parts[8] = '</text><text x=\"10\" y=\"100\" class=\"base\"> Level: ';\n\n        parts[9] = getLevel(_randomNumber);\n\n        parts[10] = '</text></svg>';\n\n        string memory finalSvg = string(abi.encodePacked(parts[0], parts[1], parts[2], parts[3], parts[4], parts[5], parts[6], parts[7], parts[8], parts[9], parts[10]));\n        return finalSvg;\n    }\n\n    /// @dev Encodes our SVG so that it's viewable as an NFT\n    /// @param _svg The SVG representing our Adventurer and their traits\n    /// @return URI for the encoded image\n    function svgToImageURI(string memory _svg) public pure returns (string memory) {\n        string memory baseURL = \"data:image/svg+xml;base64,\";\n        string memory svgBase64Encoded = Base64.encode(bytes(string(abi.encodePacked(_svg))));\n        return string(abi.encodePacked(baseURL,svgBase64Encoded));\n    }\n\n    /// @dev Finalizes the token URI and sets the format for descriptive information\n    /// @param _imageURI URI for the encoded image\n    /// @param _tokenId ID of the newly-minted token\n    /// @return String representing our token URI\n    function formatTokenURI(string memory _imageURI, uint256 _tokenId) public pure returns (string memory) {\n        return string(\n                abi.encodePacked(\n                    \"data:application/json;base64,\",\n                    Base64.encode(\n                        bytes(\n                            abi.encodePacked(\n                                '{\"name\":\"',\"Forgotten Adventurer #\", toString(_tokenId) ,\n                                '\", \"description\":\"A randomly generated Azerothian adventurer\", \"attributes\":\"\", \"image\":\"',_imageURI,'\"}'\n                            )\n                        )\n                    )\n                )\n            );\n    }\n    \n  \n\n\n}",
  "sourcePath": "/Users/gou/Documents/GitHub/blockchain-developer-bootcamp-final-project/contracts/ForgottenAdventurers.sol",
  "compiler": {
    "name": "solc",
    "version": "0.8.11+commit.d7f03943.Emscripten.clang"
  },
  "schemaVersion": "3.4.4",
  "updatedAt": "2022-01-16T02:58:16.346Z",
  "networkType": "ethereum",
  "devdoc": {
    "events": {
      "CreatedAdventurer(uint256,string)": {
        "details": "Emitted after randomness has been used to generate an adventurer and finalize minting"
      },
      "CreatedUnfinishedAdventurer(uint256,uint256)": {
        "details": "Emitted in the fulfillRandomness callback function after randomness has been received from the VRF"
      },
      "requestedAdventurer(bytes32,uint256)": {
        "details": "Emitted when an adventurer is generated and the initial request for randomness has been made"
      }
    },
    "kind": "dev",
    "methods": {
      "approve(address,uint256)": {
        "details": "See {IERC721-approve}."
      },
      "balanceOf(address)": {
        "details": "See {IERC721-balanceOf}."
      },
      "create()": {
        "details": "Includes additional checks based on # of tokens minted and mint priceInspired by Patrick Collins' RandomSVG.sol contract  https://github.com/PatrickAlphaC/all-on-chain-generated-nft/blob/main/contracts/RandomSVG.sol - MIT license",
        "params": {
          "_requestId": "ID of the request to Chainlink VRF"
        },
        "returns": {
          "_requestId": "of the request made to Chainlink VRF"
        }
      },
      "finishMint(uint256)": {
        "details": "It takes a few minutes for the Chainlink VRF to receive and respond to your request",
        "params": {
          "_tokenId": "ID of the newly-minted token"
        }
      },
      "formatTokenURI(string,uint256)": {
        "details": "Finalizes the token URI and sets the format for descriptive information",
        "params": {
          "_imageURI": "URI for the encoded image",
          "_tokenId": "ID of the newly-minted token"
        },
        "returns": {
          "_0": "String representing our token URI"
        }
      },
      "generateSVG(uint256)": {
        "details": "Dynamically generates an SVG using the trait creation functions defined above",
        "params": {
          "_randomNumber": "The random number received from Chainlink VRF"
        },
        "returns": {
          "_0": "finalSvg The assembled image for our NFT representing an Adventurer's information"
        }
      },
      "getApproved(uint256)": {
        "details": "See {IERC721-getApproved}."
      },
      "getClass(uint256)": {
        "params": {
          "_randomNumber": "The random number received from Chainlink VRF"
        },
        "returns": {
          "_0": "String value for the randomly selected class"
        }
      },
      "getLastSeen(uint256)": {
        "params": {
          "_randomNumber": "The random number received from Chainlink VRF"
        },
        "returns": {
          "_0": "String value for the randomly selected location"
        }
      },
      "getLevel(uint256)": {
        "details": "Taken from Chainlink's Best Practices document https://docs.chain.link/docs/chainlink-vrf-best-practices/#getting-a-random-number-within-a-range ",
        "params": {
          "_randomNumber": "The random number received from Chainlink VRF"
        },
        "returns": {
          "_0": "Randomly generated level between 1-60"
        }
      },
      "getMaxAvailable()": {
        "returns": {
          "_0": "Maximum number of NFT's available"
        }
      },
      "getMintPrice()": {
        "returns": {
          "_0": "Mint price for one NFT"
        }
      },
      "getName(uint256)": {
        "params": {
          "_randomNumber": "The random number received from Chainlink VRF"
        },
        "returns": {
          "_0": "String value for the randomly selected name"
        }
      },
      "getRace(uint256)": {
        "params": {
          "_randomNumber": "The random number received from Chainlink VRF"
        },
        "returns": {
          "_0": "String value for the randomly selected race"
        }
      },
      "getTotalNFTsMintedSoFar()": {
        "returns": {
          "_0": "Total number of NFT's minted"
        }
      },
      "isApprovedForAll(address,address)": {
        "details": "See {IERC721-isApprovedForAll}."
      },
      "name()": {
        "details": "See {IERC721Metadata-name}."
      },
      "owner()": {
        "details": "Returns the address of the current owner."
      },
      "ownerOf(uint256)": {
        "details": "See {IERC721-ownerOf}."
      },
      "renounceOwnership()": {
        "details": "Leaves the contract without owner. It will not be possible to call `onlyOwner` functions anymore. Can only be called by the current owner. NOTE: Renouncing ownership will leave the contract without an owner, thereby removing any functionality that is only available to the owner."
      },
      "safeTransferFrom(address,address,uint256)": {
        "details": "See {IERC721-safeTransferFrom}."
      },
      "safeTransferFrom(address,address,uint256,bytes)": {
        "details": "See {IERC721-safeTransferFrom}."
      },
      "setApprovalForAll(address,bool)": {
        "details": "See {IERC721-setApprovalForAll}."
      },
      "supportsInterface(bytes4)": {
        "details": "See {IERC165-supportsInterface}."
      },
      "svgToImageURI(string)": {
        "details": "Encodes our SVG so that it's viewable as an NFT",
        "params": {
          "_svg": "The SVG representing our Adventurer and their traits"
        },
        "returns": {
          "_0": "URI for the encoded image"
        }
      },
      "symbol()": {
        "details": "See {IERC721Metadata-symbol}."
      },
      "tokenURI(uint256)": {
        "details": "See {IERC721Metadata-tokenURI}."
      },
      "transferFrom(address,address,uint256)": {
        "details": "See {IERC721-transferFrom}."
      },
      "transferOwnership(address)": {
        "details": "Transfers ownership of the contract to a new account (`newOwner`). Can only be called by the current owner."
      }
    },
    "stateVariables": {
      "maxAvailable": {
        "details": "Sets the maximum amount mintable"
      },
      "price": {
        "details": "Sets the mint price in wei"
      },
      "races": {
        "details": "Used to define a mapping between adventurer names and races"
      },
      "requestIdToSender": {
        "details": "Requirements for the Chainlink VRF"
      }
    },
    "version": 1
  },
  "userdoc": {
    "kind": "user",
    "methods": {
      "create()": {
        "notice": "Requests a random number from the Chainlink VRF and creates a new token ID"
      },
      "finishMint(uint256)": {
        "notice": "Receives a random number from the Chainlink VRF and uses that to finish generating an adventurer"
      },
      "generateSVG(uint256)": {
        "notice": "Creates our image for the NFT"
      },
      "getClass(uint256)": {
        "notice": "Randomly chooses an adventurer's class using the pluckString() function "
      },
      "getLastSeen(uint256)": {
        "notice": "Randomly chooses an adventurer's last seen location using the pluckString() function "
      },
      "getLevel(uint256)": {
        "notice": "Randomly chooses an adventurer's level using output from the Chainlink VRF"
      },
      "getMaxAvailable()": {
        "notice": "Get the maximum number of NFT's available"
      },
      "getMintPrice()": {
        "notice": "Get the mint price"
      },
      "getName(uint256)": {
        "notice": "Randomly chooses an adventurer's name using the pluckString() function "
      },
      "getRace(uint256)": {
        "notice": "Randomly chooses an adventurer's race using the pluckString() function "
      },
      "getTotalNFTsMintedSoFar()": {
        "notice": "Get total number of NFT's minted"
      },
      "withdraw()": {
        "notice": "Usable by the owner to withdraw funds from the contract"
      }
    },
    "notice": "This project was built out of nostalgia for the early years of World of Warcraft Seeing how empty Azeroth is these days, I'm reminded of all the adventurers that logged off for the last time years ago The randomly generated descriptions in this contract evoke a sense of reflection on the lore behind each Forgotten Adventurer",
    "version": 1
  }
}